S01F00004F6E2064656D616E642074726166666963204C696768742E73726563A8
S11300000C942A000C94E3000C9447000C944700D1
S11300100C9447000C9447000C9447000C94470040
S11300200C9447000C9447000C9447000C94470030
S11300300C9447000C9447000C9447000C94470020
S11300400C9447000C9447000C9447000C94470010
S11300500C94470011241FBECFE5D8E0DEBFCDBF0E
S113006010E0A0E6B0E0E6E0F3E002C005900D92F7
S1130070AA36B107D9F720E0AAE6B0E001C01D9284
S1130080AE36B207E1F70E94D4000C9481010C94BF
S113009000000E94D9000E9416010E9467010E947C
S11300A00E010895CF93DF93CBE0D0E063C0CE017F
S11300B0DD230CF40196959587950E94DC008091D0
S11300C06A0090916B00892B71F40E9429010E94AF
S11300D0520180916D00882331F081E090E090938B
S11300E06B0080936A0080916A0090916B00019785
S11300F071F40E943D010E945C0180916D0088238F
S113010031F08BB384608BBB88B3816088BB8091F2
S11301106A0090916B00029769F40E9433010E9477
S1130120480180916D00813029F48F5F80936D00C8
S1130130CBE0D0E080916A0090916B000397A9F422
S11301400E943D010E945C0180916C00813019F491
S113015088B3846088BB80916D00882331F082E08D
S113016090E090936B0080936A0084EF91E00E948A
S11301706A012197C230D1050CF099CF80916A00B1
S113018090916B00019690936B0080936A0010929B
S11301906D00049731F410926B0010926A00109273
S11301A06C00DF91CF9108950E9449000E94520093
S11301B0FDCF8FEF84BB0895E82FF0E0E05AFF4FA6
S11301C0808185BB08951F920F920FB60F92112460
S11301D02F933F934F935F936F937F938F939F934B
S11301E0AF93BF93EF93FF9381E080936C00809370
S11301F06D0082E390E00E946A01FF91EF91BF914C
S1130200AF919F918F917F916F915F914F913F91AA
S11302102F910F900FBE0F901F90189511BA12BA1C
S113022080E48BBF83E085BF789408958AB38460AB
S11302308ABB8AB381608ABB8AB382608ABB87B374
S1130240846087BB87B3816087BB87B3826087BBC9
S113025008958BB384608BBB8BB38E7F8BBB8BB3C6
S11302608D7F8BBB08958BB38B7F8BBB8BB38160EE
S11302708BBB8BB38D7F8BBB08958BB38B7F8BBB79
S11302808BB38E7F8BBB9BB382E089278BBB089596
S113029088B3846088BB88B38E7F88BB88B38D7F26
S11302A088BB089588B38B7F88BB88B3816088BB83
S11302B088B38D7F88BB089588B38B7F88BB88B350
S11302C08E7F88BB98B382E0892788BB089513BECC
S11302D012BE089523B7226023BFAC01440F551FFB
S11302E0440F551F20E030E008C008B600FEFDCFE3
S11302F098B7916098BF2F5F3F4F24173507A8F335
S10903000895F894FFCFFC
S10D030681F34961332505F101215B
S9030000FC
